:020000040000FA
:020000000728CF
:04000A00003400348A
:02000E0083016C
:100010008316051470308F008730810007309C00F4
:100020000130910050309F00831281309F00882062
:100030000B1D18280B11831203139F149F181E28E1
:10004000831203131E0883120313A30083160313E2
:100050001E0883120313A200A4102308031D3528D1
:1000600016302202031CA4143D2801302302031D74
:100070003C28663022020318A414A30CA20C2411FD
:100080003230A20203184628A209241522082506A8
:1000900003194E28A0012208A5001828A00A201D37
:1000A0001828A0018820A41867282419BC22220837
:1000B0006E20A60026080F394021260E0F39DD21BB
:1000C0000030241801307A220C30A3201828831223
:1000D000031795179516941583011828A100A10AF6
:1000E000A7012410A10303198628A70A27080F399E
:1000F0000A3A031D72280630A7072708F039A03AEC
:10010000031D72286030A7072414722827080800EE
:10011000030883120317A0004F309C0008309D0095
:10012000E1309E00900191019201930194019501AB
:1001300096019701980199019A019B01203088004E
:1001400093308700EC2AF000030883120317A00005
:1001500000308A0070080F39B03E03188A0A820006
:10016000C028C828D028D828E028E828F028F8286F
:100170000029082910291829202928293029382957
:100180001217921798171B17181715179513EC2AA3
:100190001213921798171B13181315139513EC2AA3
:1001A0001217921798131B17181715139517EC2A87
:1001B0001217921798171B17181315139517EC2A77
:1001C0001213921798171B13181315179517EC2A6B
:1001D0001217921398171B17181315179517EC2A57
:1001E0001217921398171B17181715179517EC2A43
:1001F0001217921798171B13181315139513EC2A3F
:100200001217921798171B17181715179517EC2A1E
:100210001217921798171B17181315179517EC2A12
:100220001217921798171B13181715179517EC2A02
:100230001213921398171B17181715179517EC2AF6
:100240001217921398131B17181715179513EC2AEA
:100250001213921798171B17181715139517EC2AD6
:100260001217921398131B17181715179517EC2AC6
:100270001217921398131B13181715179517EC2ABA
:10028000F000030883120317A00001308A007008F1
:100290000F394D3E03188A0A82005D2965296D29B0
:1002A00075297D2985298D2995299D29A529AD297E
:1002B000B529BD29C529CD29D5291017921698161B
:1002C0001917161713179512EC2A10139216981671
:1002D0001913161313139512EC2A1017921698126D
:1002E0001917161713139516EC2A1017921698164D
:1002F0001917161313139516EC2A10139216981645
:100300001913161313179516EC2A10179212981634
:100310001917161313179516EC2A10179212981620
:100320001917161713179516EC2A10179216981608
:100330001913161313139512EC2A10179216981608
:100340001917161713179516EC2A101792169816E8
:100350001917161313179516EC2A101792169816DC
:100360001913161713179516EC2A101392129816D4
:100370001917161713179516EC2A101792129812C0
:100380001917161713179512EC2A101392169816B0
:100390001917161713139516EC2A101792129812A4
:1003A0001917161713179516EC2A10179212981290
:1003B0001913161713179516EC2AF0000308831269
:1003C0000317A00001308A0070080F39EA3E0318B5
:1003D0008A0A8200FA29022A0A2A122A1A2A222AB8
:1003E0002A2A322A3A2A422A4A2A522A5A2A622A8D
:1003F0006A2A722A901591159715991596159315D5
:100400009411EC2A90119115971599119611931149
:100410009411EC2A90159115971199159615931131
:100420009415EC2A9015911597159915961193111D
:100430009415EC2A90119115971599119611931511
:100440009415EC2A901591119715991596119315FD
:100450009415EC2A901591119715991596159315E9
:100460009415EC2A901591159715991196119311E1
:100470009411EC2A901591159715991596159315C9
:100480009415EC2A901591159715991596119315B9
:100490009415EC2A901591159715991196159315A9
:1004A0009415EC2A9011911197159915961593159D
:1004B0009415EC2A9015911197119915961593158D
:1004C0009411EC2A90119115971599159615931181
:1004D0009415EC2A9015911197119915961593156D
:1004E0009415EC2A90159111971199119615931561
:1004F0009415EC2AF000030883120317A00070087B
:10050000003A031D161503191611EC2A030883126D
:100510000317A0009B16EC2A030883120317A00000
:100520009A15EC2A030883120317A0001915EC2A68
:10053000030883120317A0001014EC2A0308831287
:100540000317A0001314EC2A030883120317A0005A
:100550001614EC2A030883120317A0001914EC2ABE
:10056000030883120317A0009014EC2A03088312D7
:100570000317A0009314EC2A030883120317A000AA
:100580009614EC2A030883120317A0009914EC2A8E
:10059000030883120317A0001015EC2A0308831226
:1005A0000317A0001315EC2A030883120317A000F9
:1005B0001214EC2A030883120317A0001514EC2A66
:1005C000030883120317A0001814EC2A03088312EF
:0E05D0000317A0001B14EC2A2008830008006B
:02400E00E4309C
:00000001FF
