:020000040000FA
:020000000728CF
:04000A00003400348A
:02000E0083016C
:1000100083168813081187160516051470308F0093
:1000200001309100D0009F003F3092008730810066
:1000300007309C00831201309F008B019B010C3024
:100040009D0012151730900088019F148A20A1018D
:100050008E018F010B1D2A280B114930810034209D
:100060004120031850202A281E08A0009F1488173A
:10007000200E30398D389D00A00C200C3F399B009C
:100080000800A10A0310A11E4F28A10110100E089C
:10009000A2000F08A30010148E018F0103140800A2
:1000A0000310A20DA30DA20DA30DA20DA30D2208F6
:1000B000A7002308A60067202A080F39A5202A0ECA
:1000C0000F39422129080F39DF218E220800031041
:1000D0001030A400A801A901AA01A70DA60DAA0D20
:1000E000A90DA80DA40B752800342A3084007F20A8
:1000F000293084007F20283084007F206D28033041
:100100000007A500A519800030300007A500A51B39
:1001100080000034030883120317A0004F309C00B6
:1001200008309D00E1309E00900191019201930101
:100130009401950196019701980199019A019B01FB
:100140002030880093308700EE2AF00003088312E5
:100150000317A00000308A0070080F39B23E031860
:100160008A0A8200C228CA28D228DA28E228EA2885
:10017000F228FA2802290A2912291A2922292A29C9
:1001800032293A291217921798171B1718171517A3
:100190009513EE2A1213921798171B1318131513A1
:1001A0009513EE2A1217921798131B171817151389
:1001B0009517EE2A1217921798171B171813151375
:1001C0009517EE2A1213921798171B131813151769
:1001D0009517EE2A1217921398171B171813151755
:1001E0009517EE2A1217921398171B171817151741
:1001F0009517EE2A1217921798171B131813151339
:100200009513EE2A1217921798171B171817151720
:100210009517EE2A1217921798171B171813151710
:100220009517EE2A1217921798171B131817151700
:100230009517EE2A1213921398171B1718171517F4
:100240009517EE2A1217921398131B1718171517E4
:100250009513EE2A1213921798171B1718171513D8
:100260009517EE2A1217921398131B1718171517C4
:100270009517EE2A1217921398131B1318171517B8
:100280009517EE2AF000030883120317A00001302F
:100290008A0070080F394F3E03188A0A82005F29CE
:1002A00067296F2977297F2987298F2997299F29EE
:1002B000A729AF29B729BF29C729CF29D7291017BF
:1002C000921698161917161713179512EE2A10136F
:1002D000921698161913161313139512EE2A101767
:1002E000921698121917161713139516EE2A10174F
:1002F000921698161917161313139516EE2A101343
:10030000921698161913161313179516EE2A10172E
:10031000921298161917161313179516EE2A10171E
:10032000921298161917161713179516EE2A10170A
:10033000921698161913161313139512EE2A101706
:10034000921698161917161713179516EE2A1017E6
:10035000921698161917161313179516EE2A1017DA
:10036000921698161913161713179516EE2A1013CE
:10037000921298161917161713179516EE2A1017BA
:10038000921298121917161713179512EE2A1013B6
:10039000921698161917161713139516EE2A10179A
:1003A000921298121917161713179516EE2A10178E
:1003B000921298121913161713179516EE2AF000B9
:1003C000030883120317A00001308A0070080F3958
:1003D000EC3E03188A0A8200FC29042A0C2A142AFB
:1003E0001C2A242A2C2A342A3C2A442A4C2A542AFD
:1003F0005C2A642A6C2A742A901591159715991510
:10040000961593159411EE2A90119115971599113F
:10041000961193119411EE2A901591159711991533
:10042000961593119415EE2A901591159715991517
:10043000961193119415EE2A901191159715991113
:10044000961193159415EE2A9015911197159915FB
:10045000961193159415EE2A9015911197159915EB
:10046000961593159415EE2A9015911597159911D7
:10047000961193119411EE2A9015911597159915CF
:10048000961593159415EE2A9015911597159915B3
:10049000961193159415EE2A9015911597159911AB
:1004A000961593159415EE2A90119111971599159B
:1004B000961593159415EE2A90159111971199158B
:1004C000961593159411EE2A90119115971599157B
:1004D000961593119415EE2A90159111971199156F
:1004E000961593159415EE2A90159111971199115F
:1004F000961593159415EE2AF0000308831203173E
:10050000A0007008003A031D161503191611EE2AF3
:10051000030883120317A0009B16EE2A0308831218
:100520000317A0009A15EE2A030883120317A000F0
:100530001915EE2A030883120317A0001014EE2ADF
:10054000030883120317A0001314EE2A0308831272
:100550000317A0001614EE2A030883120317A00045
:100560001914EE2A030883120317A0009014EE2A30
:10057000030883120317A0009314EE2A03088312C2
:100580000317A0009614EE2A030883120317A00095
:100590009914EE2A030883120317A0001015EE2AFF
:1005A000030883120317A0001315EE2A0308831211
:1005B0000317A0001214EE2A030883120317A000E9
:1005C0001514EE2A030883120317A0001814EE2A4C
:1005D000030883120317A0001B14EE2A20088300CF
:0205E000080011
:02400E00E4309C
:00000001FF
